:0300000002000EED
:0C000E00787FE4F6D8FD75810F020055E4
:08019300020C0000020E000046
:1000F300E4FDFCC3ED9FEC9E5015E4FBFA0BBB0043
:0F010300010ABA03F8BBA2F50DBD00010C80E4A0
:0101120022CA
:10012900C2B3C2B2758902758CD2758AD2D28CD209
:04013900A9D2AF2276
:0D016C00C295C294C292C293C297C296225D
:10013D00D293D296750A00750B0A75080075090AD7
:01014D00228F
:0F014E00750A00750B0F75080075090BD2932207
:0F015D0075080075090F750A00750B0BD29622F5
:0D017900C294C295C293C297C296C2922250
:1001130020B30620B20312013D30B30312014E3067
:06012300B20312015D228F
:0D01860012012912016CD29512011380FBA9
:03000B0002009A56
:10009A00C0E0C0D0758CD2758AD2050DE50D70020C
:1000AA00050C050FE50F7002050EC3E50D950BE56E
:1000BA000C950A5004D2948002C294E50D64284536
:1000CA000C7004F50CF50DC3E50F9509E50E9508BE
:1000DA005004D2958002C295E50F6428450E70043B
:0900EA00F50EF50FD0D0D0E03284
:10001A00020186E493A3F8E493A34003F68001F275
:10002A0008DFF48029E493A3F85407240CC8C333E7
:10003A00C4540F4420C8834004F456800146F6DFB6
:10004A00E4800B0102040810204080900193E47EB2
:10005A00019360BCA3FF543F30E509541FFEE493AB
:10006A00A360010ECF54C025E060A840B8E493A372
:10007A00FAE493A3F8E493A3C8C582C8CAC583CA9D
:10008A00F0A3C8C582C8CAC583CADFE9DEE780BE55
:01019B000063
:00000001FF
