:1000910000C000F900A400B000990092008200F8AD
:1000A100008000900088008300C600A10086008EB9
:10007100E4FDFCC3ED9FEC9E5015E4FBFA0BBB00C5
:0F008100010ABA03F8BBA2F50DBD00010C80E423
:01009000224D
:1000B100759850758920758DFD758BFDE4F587C2A6
:0700C10098D28E75A8902271
:100003001200B1D28E30982EC298AF99EF25E0241A
:1000130091F582E43400F583740193F580AF99EF91
:1000230025E02491F582E43400F583740193F97F8C
:100033000A7E001200713098FDC298AF99EF25E057
:100043002491F582E43400F583740193F5807F0AEB
:100053007E0012007189A0120071AF99EF25E02490
:0E00630091F582E43400F583740193F980C8AE
:030000000200C833
:0C00C800787FE4F6D8FD75810702000384
:00000001FF
