:030000000202C237
:0C02C200787FE4F6D8FD75812002030966
:10041B00020A000002080000010C00040D0000009D
:03042B0000C1000D
:0703DB0012046C7F647E0038
:1003E200D3EF9400EE940040147D727C00ED1D70FA
:0D03F200011CED4C70F7EF1F70E61E80E35C
:0103FF0022DB
:080471007F037EC4DEFEDFFC08
:010479002260
:09044900007F227E10DEFEDFFCC4
:010452002287
:09045300007F027E0FDEFEDFFCDB
:01045C00227D
:09045D00007F237EC5DEFEDFFCFA
:010466002273
:08047A007F207E5DDEFEDFFC49
:010482002257
:080483007F057E78DEFEDFFC40
:01048B00224E
:0D000E00D294D295C292C297D293D296227C
:050467007E001203E21B
:05046C00C294C29522BC
:0D042F00D294D295C296C292D293C2972267
:0D043C00D294D295C297C293D296C292225A
:10034E00D2A100000000000000000000000000002C
:10035E0000000000000000C2A130A0FDD28C20A041
:10036E00FDC28CAF8CEFFEAD8A7C00E42DF50BEC5C
:10037E003EF50AE4F58CF58AAC0AAD0B1201297B29
:0E038E00777AE0793C783E12001E120162225E
:1001F100E4F512D2A7120471C2A71204490512E54F
:1002010012C3940A40ED7F327E001203E212034EC4
:100211008F137F0A8016E513D394A0401612000EA7
:100221007F1E12046712034E8F137F787E00120324
:10023100E280E31203DBE4F512D2A7120483C2A722
:1002410012047A0512E512C3940A40ED12034E8F8F
:10025100141203DEE4F512D2A7120453C2A712044A
:100261005D0512E512C3940A40ED12034E8F15127B
:1002710003DE12043C7F0E7E011203E212046C7F46
:10028100C87E001203E212034E8F137F967E001286
:1002910003E212000E7F1412046712034E8F13E55E
:1002A10013C394DC40E01203DB12042F7FFA7E00BB
:1002B1001203E212000E7F2C7E011203E212046C83
:0102C100221A
:03000B00020003ED
:03000300D20032F6
:03001B0002039C41
:10039C00C0E0C0D0758DF8758B300509E509700289
:1003AC000508C394FAE5089400401F750800750908
:1003BC0000D2A100000000000000000000000000BE
:0F03CC000000000000000000C2A1D0D0D0E0323D
:10040000758911E4F58CF58A758DF8758B30D2A954
:0B041000D2ABD28ED2AF1201F180FE01
:10001E00EC4D6011E8497017ED33EC3304600DE4DC
:10002E00FCFFFEFD22E933E8330470F80201CE1224
:10003E00019958046009E4CC248150062850090225
:10004E0001D82840030201D5C0E0EB4A7044B980C4
:10005E0006D0E0FB0201C4EF4E701CBD8008EBFF22
:10006E00EAFEE9FD80EBE98DF0A4FEE5F002010762
:10007E00E9CDF9EAFEEBFFEF89F0A4FCE5F0CE89BD
:10008E00F0A42EFFE435F0CD89F0A42DFEE435F07A
:10009E008067EF4E7005BD80D780C3EF8BF0A4ACA8
:1000AE00F0EE8BF0A42CFCE435F0F8EF8AF0A42CE3
:1000BE00E5F038FCE433CB8DF0A42CFCE5F03BF8F6
:1000CE00EE8AF0A42CFCE5F038F8E433CF89F0A4E6
:1000DE002CFCE5F038CF3400CE89F0A42FFFE5F0EC
:1000EE003EFEE433C98DF0A42EFEE5F039CD8AF044
:1000FE00A42FFFE5F03EFEE43DFD33D0E0FB5007BC
:10010E000BBB000F0201D8EC2CFCEF33FFEE33FEDD
:06011E00ED33FD0201B00B
:1001240075F020800E75F010800575F0087D007E56
:10013400007F003392D530D5031201E3EC33401035
:10014400EF33FFEE33FEED33FDEC33FCD5F0ED225F
:0E015400E5F0247EA2D513CC92E7CDCEFF229B
:10016200EDD2E7CD33EC3392D524814006E4FFFE95
:10017200FDFC22FCE4CFCECDCC24E0501174FF80F4
:10018200EDC3CC13CCCD13CDCE13CECF13CF047091
:07019200F030D5DE0201E3AD
:10019900E9D2E7C933E833F892D5EDD2E7CD33ECAC
:0701A90033FC5002B2D52225
:1001B000EC30E7100FBF000C0EBE00080DBD0004B0
:1001C0000BEB6014A2D5EB13FCED92E7FD2274FF5C
:1001D000FCFDFEFF22E480F8A2D574FF13FC7D80B5
:0301E000E480EFC9
:1002CE00020400E493A3F8E493A34003F68001F242
:1002DE0008DFF48029E493A3F85407240CC8C33331
:1002EE00C4540F4420C8834004F456800146F6DF00
:1002FE00E4800B010204081020408090041BE47E71
:10030E00019360BCA3FF543F30E509541FFEE493F4
:10031E00A360010ECF54C025E060A840B8E493A3BB
:10032E00FAE493A3F8E493A3C8C582C8CAC583CAE6
:10033E00F0A3C8C582C8CAC583CADFE9DEE780BE9E
:01042E0000CD
:0E01E300C3E49FFFE49EFEE49DFDE49CFC222D
:00000001FF
