:030000000200AE4D
:0C00AE00787FE4F6D8FD75810F0200F5A4
:10020A0000C000F900A400B000990092008200F832
:10021A00008000900088008300C600A10086008E3E
:08023A0002080000020A0000A6
:0B01DF00D2A7758002C2A77F017E003E
:1001EA00E4FDFCC3ED9FEC9E5015E4FBFA0BBB004B
:0F01FA00010AEB64704A70F50DBD00010C80E442
:0102090022D2
:10022A00758901758CD8758AF0D28CD2A9D2AF2281
:10000E00AE08AF097C007D0A12013A8E0C8F0DAE40
:10001E0008AF097C007D0A12013A8C0E8D0F758097
:10002E00FFC3E509940AE5089400501F1201DFD2C0
:10003E00A6E50925E0FFE50833FE740A2FF5827464
:10004E00023EF583740193F580C2A6C3E509940AB6
:10005E00E508940040491201DF7580FFD2A6E50D38
:10006E0025E0FFE50C33FE740A2FF58274023EF58F
:10007E0083740193F580C2A6D2A77580011201E4A4
:10008E007580FFD2A6E50F25E0FFE50E33FE740A5C
:0F009E002FF58274023EF583740193F580C2A69C
:0100AD002230
:0800030012022A12000E80FB1C
:03000B0002018F60
:10018F00C0E0C0D075D000C006758CD8758AF00558
:10019F000BE50B7002050A6450450A702CB29005EE
:1001AF0009E50970020508D39463E5089400400639
:1001BF00750800750900E50B150BAE0A7002150ADC
:1001CF004E70F3750A00750B00D006D0D0D0E03218
:1000BA00020003E493A3F8E493A34003F68001F259
:1000CA0008DFF48029E493A3F85407240CC8C33347
:1000DA00C4540F4420C8834004F456800146F6DF16
:1000EA00E4800B010204081020408090023AE47E6A
:1000FA00019360BCA3FF543F30E509541FFEE4930B
:10010A00A360010ECF54C025E060A840B8E493A3D1
:10011A00FAE493A3F8E493A3C8C582C8CAC583CAFC
:10012A00F0A3C8C582C8CAC583CADFE9DEE780BEB4
:0102420000BB
:10013A00BC000BBE0029EF8DF084FFADF022E4CCA9
:10014A00F875F008EF2FFFEE33FEEC33FCEE9DEC72
:10015A00984005FCEE9DFE0FD5F0E9E4CEFD22EDB8
:10016A00F8F5F0EE8420D21CFEADF075F008EF2F02
:10017A00FFED33FD4007985006D5F0F222C398FDF3
:05018A000FD5F0EA2290
:00000001FF
