:1006DB0041542B4349504D55583D310D0A0041545F
:1006EB002B4349505345525645523D312C383038E7
:1006FB00300D0A0041542B43495053544F3D300D9C
:02070B000A00E2
:1007C30001091E01131E010801010D00C101020BE5
:0A07D3000000040E00000000C10049
:070003007E0A00DEFDDFF9BB
:01000A0022D3
:040785007FE87E0388
:10078900D3EF9400EE940040147D727C00ED1D704F
:0D079900011CED4C70F7EF1F70E61E80E3B1
:0107A6002230
:0F07F80075097875138CC292D293D296C297224C
:0F08070075098C75138CC292C293D296C2972238
:0F08160075098C75138CC296C297C292D2932229
:0F08250075090A751396D296C297C292D2932282
:0F08340075099675130AD296C297C292D2932273
:09084300D292C293C296D2972210
:09084C00C292C293C296C2972227
:0A000E00D2A17F02120003C2A1225A
:10068E00AF8CEFFEAD8A7C00E42DF50CEC3EF50B45
:10069E00E4F58CF58AAC0BAD0C1202297B777AE06F
:1006AE00793C783E12011E1202628F118E108D0F50
:1006BE008C0EE47F587E1BFDFCAB11AA10A90FA86F
:0D06CE000EC312030A5003300002C20022C6
:10062E00E47F907E01FDFCAB11AA10A90FA80EC3AA
:10063E0012030A504712084C1208437F647E0012C0
:10064E0007891208347F5A7E0012078912084C7FE0
:10065E00647E0012078912000E30A0FDD28C20A0FD
:10066E00FDC28C12068EE47F187E01FDFCAB11AA32
:10067E0010A90FA80EC312030A40C7221207F822B0
:10073B0030B30630B2030207F830B30620B203120F
:10074B00080720B30630B20312081620B30620B2F6
:05075B00031208432217
:1005CC0030B40C30B50975098C7513961207F830D8
:1005DC00B41320B5107509B475136E1208077F2873
:1005EC007E0012078920B41330B510750964751399
:1005FC00B41208167F287E0012078920B42320B578
:10060C00207509967513A01208437F647E001207AB
:10061C008975098C7513961208257FB47E00120714
:02062C00892221
:1007DE0012000E30A0FDD28C20A0FDC28C12068E0F
:0A07EE0012062E7F417E00020789EB
:1007A70020B40620B5031207F830B40620B50312AB
:0C07B700081620B40630B5031208072213
:10070D00D2AF43985043C83475CADC75CCDC75CB79
:10071D00FF75CDFFD2AC438901E4F58CF58AD2A9E2
:0E072D00438920758DDC758BDCD28ED2AB2219
:100341007FD07E0712078912070D7514FF751506F8
:100351007516DBAB14AA15A9161202E36016051671
:10036100E5167002051514F91202E3F5993099FDAD
:10037100C29980DF120785E512B40ACE7512307575
:1003810017FF7518067519E9AB17AA18A9191202F2
:10039100E360160519E5197002051814F91202E354
:1003A100F5993099FDC29980DF120785E512B40AEB
:1003B100CE751230751AFF751B06751CFFAB1AAA94
:1003C1001BA91C1202E36016051CE51C7002051B2B
:1003D10014F91202E3F5993099FDC29980DF1207F1
:1003E10085E512B40ACE751230C2A3120785D2A3D5
:1003F100E508D39417400312084CE50812031B04C7
:100401003F01042B02043003043504043A0504447B
:1004110006044907044E08045209045611045B12EC
:10042100046013046515000003F11207F880C1127E
:10043100084380BC12080780B712081680B2120860
:100441004C80AD12083480A812082580A3C2A38075
:100451009FD2A3809B1207DE809612073B809112E8
:0904610005CC808C1207A78087EE
:03000B00020018D8
:03001800D20032E1
:03001B0002076079
:10076000C0E0C0D0050AE50AB4FF07C295C294757F
:100770000A00E509B50A02D294E513B50A02D2953A
:05078000D0D0D0E032F2
:0300230002046A6A
:10046A00C0E0C0F0C083C082C0D075D000C000C058
:10047A0001C002C003C004C005C006C00730980509
:10048A00C298859912E512B42B02D20130010205F5
:10049A000DE50D640A6003020525859908F50DC26C
:1004AA0001E508C394334036E508D39496502FE506
:1004BA000824CEFDE434FFFCE41202297B9A7A99DF
:1004CA0079D9783F12011EA804A905AA06AB07E448
:1004DA00FFFE7D2A7C431200291202628F09E50879
:1004EA00C394974036E508D394FA502FE508246A56
:1004FA00FDE434FFFCE41202297B9A7A9979D978CF
:10050A003F12011EA804A905AA06AB07E4FFFE7D57
:10051A002A7C431200291202628F13D007D006D018
:10052A0005D004D003D002D001D000D0D0D082D0E0
:06053A0083D0F0D0E03296
:100026000202CEE86480F8E933E83360110460F038
:10003600ED33EC337009E8FCE9FDEAFEEBFF220440
:1000460060DED3EB9FEA9EE99DE8C2E78CF0C2F73B
:1000560095F0400CE8CCF8E9CDF9EACEFAEBCFFB07
:1000660012029985D0F05804700320D5B3E80470C5
:10007600075002B2D50202D892D5EC0460F7E4CC60
:10008600C0E0C398F8603B94186008400DD0E0FBD0
:100096000202B0E4FBFAC9FC8028E830E406E4C9B1
:1000A600FBE4CAFCE830E305E4C9CACBFCE8540724
:1000B6006010F8C3E913F9EA13FAEB13FBEC13FC2F
:1000C600D8F130F52FC3E49CFCEF9BFFEE9AFEEDD2
:1000D60099FDD0E0FBEF4E4D4C701222DB0302027D
:1000E600D5EC2CFCEF33FFEE33FEED33FDED30E7C0
:1000F600EB0202B0EF2BFFEE3AFEED39FDD0E0FB4E
:1001060050130BBB00030202D8ED13FDEE13FEEFF6
:0801160013FFEC13FC0202B020
:10011E00EC4D6011E8497017ED33EC3304600DE4DB
:10012E00FCFFFEFD22E933E8330470F80202CE1222
:10013E00029958046009E4CC248150062850090223
:10014E0002D82840030202D5C0E0EB4A7044B980C1
:10015E0006D0E0FB0202C4EF4E701CBD8008EBFF20
:10016E00EAFEE9FD80EBE98DF0A4FEE5F002020760
:10017E00E9CDF9EAFEEBFFEF89F0A4FCE5F0CE89BC
:10018E00F0A42EFFE435F0CD89F0A42DFEE435F079
:10019E008067EF4E7005BD80D780C3EF8BF0A4ACA7
:1001AE00F0EE8BF0A42CFCE435F0F8EF8AF0A42CE2
:1001BE00E5F038FCE433CB8DF0A42CFCE5F03BF8F5
:1001CE00EE8AF0A42CFCE5F038F8E433CF89F0A4E5
:1001DE002CFCE5F038CF3400CE89F0A42FFFE5F0EB
:1001EE003EFEE433C98DF0A42EFEE5F039CD8AF043
:1001FE00A42FFFE5F03EFEE43DFD33D0E0FB5007BB
:10020E000BBB000F0202D8EC2CFCEF33FFEE33FEDB
:06021E00ED33FD0202B009
:1002240075F020800E75F010800575F0087D007E55
:10023400007F003392D530D5031202FCEC3340101A
:10024400EF33FFEE33FEED33FDEC33FCD5F0ED225E
:0E025400E5F0247EA2D513CC92E7CDCEFF229A
:10026200EDD2E7CD33EC3392D524814006E4FFFE94
:10027200FDFC22FCE4CFCECDCC24E0501174FF80F3
:10028200EDC3CC13CCCD13CDCE13CECF13CF047090
:07029200F030D5DE0202FC92
:10029900E9D2E7C933E833F892D5EDD2E7CD33ECAB
:0702A90033FC5002B2D52224
:1002B000EC30E7100FBF000C0EBE00080DBD0004AF
:1002C0000BEB6014A2D5EB13FCED92E7FD2274FF5B
:1002D000FCFDFEFF22E480F8A2D574FF13FC7D80B4
:0302E000E480EFC8
:03000000020540B6
:0C054000787FE4F6D8FD75812002058765
:1002E300BB010689828A83E0225002E722BBFE0219
:0902F300E32289828A83E493224C
:0E02FC00C3E49FFFE49EFEE49DFDE49CFC2213
:10030A00EB9FF5F0EA9E42F0E99D42F0E89C45F049
:01031A0022C0
:10031B00D083D082F8E4937012740193700DA3A371
:10032B0093F8740193F5828883E473740293686085
:06033B00EFA3A3A380DF85
:10054C00020341E493A3F8E493A34003F68001F281
:10055C0008DFF48029E493A3F85407240CC8C333B0
:10056C00C4540F4420C8834004F456800146F6DF7F
:10057C00E4800B01020408102040809007C3E47E45
:10058C00019360BCA3FF543F30E509541FFEE49374
:10059C00A360010ECF54C025E060A840B8E493A33B
:1005AC00FAE493A3F8E493A3C8C582C8CAC583CA66
:1005BC00F0A3C8C582C8CAC583CADFE9DEE780BE1E
:0107DD00001B
:00000001FF
