:0300000002020AEF
:0C020A00787FE4F6D8FD758121020251D6
:100296000B0EC0F9A4B0999282F8809088040A01E6
:0702A6000204080208000039
:03000B000202C42A
:1002C400C0E00509E50970020508758AB0758C3C23
:0302D400D0E03245
:1002AE00EF1FAA0670011E4A600BE4FDEDC39478A1
:0502BE0050EE0D80F779
:0102C3002218
:10000E00E4F519740E2519F8E6F5B0D2A9D2AF753C
:10001E008C3C758AB07589012090FDD28C051975BE
:10002E00A001740E2519F8E6F5803090FDC28CE51E
:10003E0019B40AE4AF8CEFFEAD8A7C00E42DFFEC20
:10004E003EFEE4FD7BE87A03F9F81201788F218EEB
:10005E00208D1F8C1EAE08AF097C007D3212012A46
:10006E00EF2521FFEE3520FEE4351FFDEC351EFC9D
:10007E00E47B0AFAF9F81201788F218E208D1F8CFD
:10008E001EE47BE87A03F9F8120178E47B0AFAF9A8
:10009E00F8120178740E2BF8E66480F51AE47B648E
:1000AE00FAF9F8AF21AE20AD1FAC1E120178E47B39
:1000BE000AFAF9F8120178740E2BF8E6F51BE47BB8
:1000CE000AFAF9F8AF21AE20AD1FAC1E120178E48A
:1000DE007B0AFAF9F8120178740E2BF8E6F51CE497
:1000EE007B0AFAF9F8AF21AE20AD1FAC1E120178D3
:1000FE00740E2BF8E6F51DE4F519740A2519F8E6C9
:10010E00F5A0741A2519F8E6F5807F057E00120217
:0C011E00AE0519E519C3940440E080DB35
:1002160002000EE493A3F8E493A34003F68001F2F0
:1002260008DFF48029E493A3F85407240CC8C333E9
:10023600C4540F4420C8834004F456800146F6DFB8
:10024600E4800B0102040810204080900296E47EB0
:10025600019360BCA3FF543F30E509541FFEE493AD
:10026600A360010ECF54C025E060A840B8E493A374
:10027600FAE493A3F8E493A3C8C582C8CAC583CA9F
:10028600F0A3C8C582C8CAC583CADFE9DEE780BE57
:0102AD000050
:10012A00EF8DF0A4A8F0CF8CF0A428CE8DF0A42EE9
:02013A00FE22A3
:10013C0075F008758200EF2FFFEE33FECD33CDCC7A
:10014C0033CCC58233C5829BED9AEC99E5829840FD
:10015C000CF582EE9BFEED9AFDEC99FC0FD5F0D6DA
:10016C00E4CEFBE4CDFAE4CCF9A88222B800C1B904
:10017C000059BA002DEC8BF084CFCECDFCE5F0CB42
:10018C00F97818EF2FFFEE33FEED33FDEC33FCEB7B
:10019C0033FB10D703994004EB99FB0FD8E5E4F936
:1001AC00FA227818EF2FFFEE33FEED33FDEC33FC23
:1001BC00C933C910D7059BE99A4007EC9BFCE99A17
:1001CC00F90FD8E0E4C9FAE4CCFB2275F010EF2F5C
:1001DC00FFEE33FEED33FDCC33CCC833C810D7075C
:1001EC009BEC9AE899400AED9BFDEC9AFCE899F897
:0E01FC000FD5F0DAE4CDFBE4CCFAE4C8F9222A
:00000001FF
