:030000000203B840
:0C03B800787FE4F6D8FD75813D0203FF5C
:1004BC000227000002250000012900042A00000088
:1004CC0000C1000C2E3F065B4F666D7D077F6F40B1
:0D04DC00000421FEFDFBF7043A00000000C3
:0D000E00D294D295C292C297D293D296227C
:10048D00C2A6E529743A2529F8E6242EF8E6F5806A
:10049D00D2A6C2A6C2A774212529F8E6F580D2A757
:0F04AD00C2A70529E529C394044003E4F52922D9
:1002D000AF8CEFFEAD8A7C00E42DF528EC3EF527CF
:1002E000E4F58CF58AAC27AD281201297B777AE0FA
:1002F000793C783E12001E1201628F2D8E2C8D2BC0
:100300008C2AE47F587E1BFDFCAB2DAA2CA92BA8C0
:100310002AC31202BF500330000EC200753A0A759C
:100320003B0A753C0A753D0AE47FC27E01FDFCABC9
:100330002DAA2CA92BA82AC31202BF5077C294C29F
:1003400095E47BE87A03F9F8AF2DAE2CAD2BAC2AFF
:1003500012021F8F3AE47BE87A03F9F8AF2DAE2C36
:10036000AD2BAC2A12021FAC00AD01AE02AF03E40C
:100370007B64FAF9F812021F8F3BE47B64FAF9F808
:10038000AF2DAE2CAD2BAC2A12021FAC00AD01AECE
:1003900002AF03E47B0AFAF9F812021F8F3CE47BF8
:1003A0000AFAF9F8AF2DAE2CAD2BAC2A12021FAF12
:0803B000038F3D2212000E2212
:03000B00020003ED
:03000300D20032F6
:03001B0002044498
:10044400C0E0C0D075D000C000758DF8758B301237
:10045400048D0526E52670020525C39490E52594B0
:1004640001401F752500752600D2A1000000000080
:100474000000000000000000000000000000000078
:09048400C2A1D000D0D0D0E032BA
:1004EA00758911E4F58CF58A758DF8758B30D2A96A
:1004FA00D2ABD28ED2AF30A0FDD28C20A0FDC28C5E
:05050A001202D080F197
:10001E00EC4D6011E8497017ED33EC3304600DE4DC
:10002E00FCFFFEFD22E933E8330470F80201CE1224
:10003E00019958046009E4CC248150062850090225
:10004E0001D82840030201D5C0E0EB4A7044B980C4
:10005E0006D0E0FB0201C4EF4E701CBD8008EBFF22
:10006E00EAFEE9FD80EBE98DF0A4FEE5F002010762
:10007E00E9CDF9EAFEEBFFEF89F0A4FCE5F0CE89BD
:10008E00F0A42EFFE435F0CD89F0A42DFEE435F07A
:10009E008067EF4E7005BD80D780C3EF8BF0A4ACA8
:1000AE00F0EE8BF0A42CFCE435F0F8EF8AF0A42CE3
:1000BE00E5F038FCE433CB8DF0A42CFCE5F03BF8F6
:1000CE00EE8AF0A42CFCE5F038F8E433CF89F0A4E6
:1000DE002CFCE5F038CF3400CE89F0A42FFFE5F0EC
:1000EE003EFEE433C98DF0A42EFEE5F039CD8AF044
:1000FE00A42FFFE5F03EFEE43DFD33D0E0FB5007BC
:10010E000BBB000F0201D8EC2CFCEF33FFEE33FEDD
:06011E00ED33FD0201B00B
:1001240075F020800E75F010800575F0087D007E56
:10013400007F003392D530D5031202B1EC33401066
:10014400EF33FFEE33FEED33FDEC33FCD5F0ED225F
:0E015400E5F0247EA2D513CC92E7CDCEFF229B
:10016200EDD2E7CD33EC3392D524814006E4FFFE95
:10017200FDFC22FCE4CFCECDCC24E0501174FF80F4
:10018200EDC3CC13CCCD13CDCE13CECF13CF047091
:07019200F030D5DE0202B1DE
:10019900E9D2E7C933E833F892D5EDD2E7CD33ECAC
:0701A90033FC5002B2D52225
:1001B000EC30E7100FBF000C0EBE00080DBD0004B0
:1001C0000BEB6014A2D5EB13FCED92E7FD2274FF5C
:1001D000FCFDFEFF22E480F8A2D574FF13FC7D80B5
:0301E000E480EFC9
:1003C4000204EAE493A3F8E493A34003F68001F261
:1003D40008DFF48029E493A3F85407240CC8C3333A
:1003E400C4540F4420C8834004F456800146F6DF09
:1003F400E4800B01020408102040809004BCE47ED9
:10040400019360BCA3FF543F30E509541FFEE493FD
:10041400A360010ECF54C025E060A840B8E493A3C4
:10042400FAE493A3F8E493A3C8C582C8CAC583CAEF
:10043400F0A3C8C582C8CAC583CADFE9DEE780BEA7
:0104E9000012
:1001E30075F008758200EF2FFFEE33FECD33CDCCD3
:1001F30033CCC58233C5829BED9AEC99E582984056
:100203000CF582EE9BFEED9AFDEC99FC0FD5F0D632
:10021300E4CEFBE4CDFAE4CCF9A88222B800C1B95C
:100223000059BA002DEC8BF084CFCECDFCE5F0CB9A
:10023300F97818EF2FFFEE33FEED33FDEC33FCEBD3
:1002430033FB10D703994004EB99FB0FD8E5E4F98E
:10025300FA227818EF2FFFEE33FEED33FDEC33FC7B
:10026300C933C910D7059BE99A4007EC9BFCE99A6F
:10027300F90FD8E0E4C9FAE4CCFB2275F010EF2FB4
:10028300FFEE33FEED33FDCC33CCC833C810D707B4
:100293009BEC9AE899400AED9BFDEC9AFCE899F8EF
:0E02A3000FD5F0DAE4CDFBE4CCFAE4C8F92282
:0E02B100C3E49FFFE49EFEE49DFDE49CFC225E
:1002BF00EB9FF5F0EA9E42F0E99D42F0E89C45F095
:0102CF00220C
:00000001FF
