:030000000200CD2E
:0C00CD00787FE4F6D8FD75810702000E74
:10003200E4FDFCC3ED9FEC9E5015E4FBFA0BBB0004
:0F004200010ABA03F8BBA2F50DBD00010C80E462
:01005100228C
:1000AE00758902758CD2758AD2D28CD2A9D2AF2222
:0D00900012003212009DC281C286120032A1
:10009D00D280D281D282D283D284D285D286D287A7
:0100AD002230
:10005200C280C2877F967E00120090C282C2851241
:0F006200003212009DC283C28412003202009D40
:10007100C283C2847F967E0012003212009DC2822A
:0F008100C285120090C280C28712003202009D19
:10000E001200AE20B0197F057E0012003220B0F330
:10001E001200527F327E0012003212007180E41202
:04002E00009D80DFD2
:03000B000200BE32
:0F00BE00758CD2758AD230B00512009D80F83251
:00000001FF
