:03000000020003F8
:0C000300787FE4F6D8FD75810B02004AFE
:10014400003F0006005B004F0066006D007D000765
:10015400007F006F0077007C0039005E0079007139
:06016400003800370073B3
:08018E0002080000020A000053
:04016A007F017E0093
:10016E00E4FDFCC3ED9FEC9E5015E4FBFA0BBB00C7
:0F017E00010ABA03F8BBA2F50DBD00010C80E425
:01018D00224F
:10008F0075900F75B0E012016AE590640F24FE6061
:10009F001424FE601824FC601C2407701E750800D1
:1000AF007509018016750800750902800E75080024
:1000BF0075090380067508007509047590F075B011
:1000CF001F12016AE5B0641F24FE600F24FE600F4B
:1000DF0024FC600F24F8600F240F227404800A742C
:1000EF00088006740C800274102509F509E43508A0
:0200FF00F50802
:0101010022DB
:10010200C2A1C2A2C2A3E4F58012008F12016AE565
:100112000B65097004E50A6508601EE50925E0FF24
:10012200E50833FE74422FF58274013EF5837401B3
:1001320093F58085080A85090B7F0A7E0012016EFD
:0201420080C774
:10000F00020102E493A3F8E493A34003F68001F204
:10001F0008DFF48029E493A3F85407240CC8C333F2
:10002F00C4540F4420C8834004F456800146F6DFC1
:10003F00E4800B010204081020408090018EE47EC2
:10004F00019360BCA3FF543F30E509541FFEE493B6
:10005F00A360010ECF54C025E060A840B8E493A37D
:10006F00FAE493A3F8E493A3C8C582C8CAC583CAA8
:10007F00F0A3C8C582C8CAC583CADFE9DEE780BE60
:010196000068
:00000001FF
