:0300000002010EEC
:0C010E00787FE4F6D8FD75810B020068D4
:1000D70000C000F900A400B000990092008200F867
:1000E700008000900088008300C600A10086008E73
:0400B3007F017E004B
:1000B700E4FDFCC3ED9FEC9E5015E4FBFA0BBB007F
:0F00C700010AEB64704A70F50DBD00010C80E476
:0100D6002207
:1000F700759840758920E4F587758DFD758BFDC270
:0701070099D28E75A8902229
:08011A008F993099FDC2992272
:1000030075900F1200B3E590640F24FE601424FE74
:10001300601824FC601C2407701E75080075090114
:100023008016750800750902800E750800750903AE
:1000330080067508007509047590F01200B3E59009
:1000430064F024E0600B24E0600B24C0600B247098
:10005300227404800674088002740C2509F509E4EF
:040063003508F5085F
:010067002276
:100068001200F7D28E1200031200B3E50B65097077
:1000780004E50A6508602BE50925E0FFE50833FE7D
:1000880074D52FF58274003EF583740193F580E5ED
:100098000924FFFFE50834FFFE12011A85080A85C6
:0B00A800090B7F0A7E001200B780BA2F
:00000001FF
