:0300000002000EED
:0C000E00787FE4F6D8FD75810F020055E4
:08021F00020C0000020E0000B9
:080153001201CD1201987F504A
:10015B00E4FDFCC3ED9FEC9E5015E4FBFA0BBB00DA
:0F016B00010AEB64324A70F50DBD00010C80E40F
:01017A002262
:10020F00758902758CD2758AD2D28CD2A9D2AF22BF
:10017B001201CD1201987F5012015B7F161201F90B
:0D018B001201987F5012015B7F281201CDF8
:09019800C292C297C293C29622E2
:1001A100120198750A00750B1B75080075095FD25D
:0601B10093D29602015BEF
:1001B700120198750A00750B5F75080075091BD247
:0601C70093D29602015BD9
:1001CD00120198750A00750B46750800750946D21F
:0601DD0093D29602015BC3
:1001E300120198750A00750B28750800750932D23B
:0601F30092D29602015BAE
:1001F900120198750A00750B32750800750928D225
:0602090093D29702015B95
:10009A007F917E001201A11201567F2812017B1264
:1000AA00018112015B7F161201E37F321201CD1228
:1000BA0001987F6412015B7F231201E31201987F8A
:1000CA003212015B12017B7F3212015B7F16120131
:1000DA00E31201567F321201537F161201E3120115
:1000EA00987F3212015B1201537F911201B71201FC
:0600FA00987F5002015B3B
:0800030012020F12009A80FEA8
:03000B00020100EF
:10010000C0E0C0D0050DE50D7002050C050FE50F30
:100110007002050EC3E50D950BE50C950A5004D24F
:10012000948002C294E50D6464450C7004F50CF5EE
:100130000DC3E50F9509E50E95085004D295800290
:10014000C295E50F6464450E7004F50EF50FD0D02E
:03015000D0E032CA
:10001A00020003E493A3F8E493A34003F68001F2F9
:10002A0008DFF48029E493A3F85407240CC8C333E7
:10003A00C4540F4420C8834004F456800146F6DFB6
:10004A00E4800B010204081020408090021FE47E25
:10005A00019360BCA3FF543F30E509541FFEE493AB
:10006A00A360010ECF54C025E060A840B8E493A372
:10007A00FAE493A3F8E493A3C8C582C8CAC583CA9D
:10008A00F0A3C8C582C8CAC583CADFE9DEE780BE55
:0102270000D6
:00000001FF
