:0300000002007289
:0C007200787FE4F6D8FD758107020003DA
:10003A00D3EF9400EE940040147DA27C03ED1D7072
:0D004A00011CED4C70F7EF1F70E61E80E307
:010057002286
:0D005800D294D295C293C292C297C2962252
:08007E00120058D293D2962221
:08008600120058D292D296221A
:0D006500C294C295C293C297C296C2922265
:10000300E4FBFA12007E7F787E0012003A1200654C
:100013007F3C7E0012003A1200867F117E001200A0
:100023003A1200657F327E0012003A0BBB00010AD0
:06003300EB64044A70CDED
:0100390022A4
:00000001FF
