:030000000213A246
:0C13A200787FE4F6D8FD75815C0213E949
:1014D1003F065B4F666D7D077F6F777C395E797163
:0214E1000040C9
:1014AC00021400100216001002180010041A4180D9
:1014BC000000041E4180000004224180000004084A
:0414CC00461C40007A
:0914720093F580D2A6C2A67F0505
:10147B007551008F52D3E5529400E55164809480EE
:10148B00401E75530075547DE55415547002155369
:10149B00E554455370F2E552155270D9155180D56C
:0114AB00221E
:1012F9007580FED2A7C2A7C2A67580FFE526B401F4
:101309000BEF9014D1936480F5808007EF9014D18E
:1013190093F580121475C2A77580FDD2A7C2A7756F
:1013290080FFE526B4020BED9014D1936480F5801B
:101339008007ED9014D193F5801214757580FBD256
:10134900A7C2A77580FFE526B4030BEB9014D193D0
:101359006480F5808007EB9014D193F580121475A1
:101369007580F7D2A7C2A77580FFE55A9014D112EC
:1013790014727580EFD2A7C2A77580FFE55B1214BE
:10138900727580DFD2A7C2A77580FFE55C93F580EF
:09139900D2A6C2A67F0502147B56
:100F500075B0FEAFB0753D008F3E533EF0753D005D
:100F6000E53E64F0453D7003020FE97F0A12147BF1
:100F7000E53E64F0453D6071AFB0753D008F3EE5E4
:100F80003D704FE53E2482603B24C0602724E06032
:100F90001324F0703DE4F543F5440542E542700248
:100FA0000541802E7543007544010542E5427002FB
:100FB0000541801E7543007544020542E5427002FA
:100FC0000541800E7543007544030542E5427002F9
:100FD0000541E53E64F0453D600FAFB0753D008FC3
:100FE0003E533EF0753D0080E975B0FDAFB0753DF4
:100FF000008F3E533EF0753D00E53E64F0453D7088
:10100000030210837F0A12147BE53E64F0453D60C5
:1010100072AFB0753D008F3EE53D7050E53E2483D4
:10102000603C24C0602824E0601424F0703E7543C6
:10103000007544040542E54270020541802E754367
:10104000007544050542E54270020541801E754366
:10105000007544060542E54270020541800E754365
:10106000007544070542E54270020541E53E64F023
:10107000453D600FAFB0753D008F3E533EF0753D6E
:101080000080E975B0FBAFB0753D008F3E533EF078
:10109000753D00E53E64F0453D606F7F0A12147BAC
:1010A000E53E64F0453D6062AFB0753D008F3EE5C2
:1010B0003D7040E53E2485603424C0602824E06013
:1010C0001424F0702E7543007544080542E5427003
:1010D000020541801E7543007544090542E54270D2
:1010E000020541800E754B00754C0180067512009B
:1010F000751301E53E64F0453D600FAFB0753D00EE
:101100008F3E533EF0753D0080E975B0F7AFB07586
:101110003D008F3E533EF0753D00E53E64F0453D99
:10112000605F7F0A12147BE53E64F0453D6052AF7C
:10113000B0753D008F3EE53D7030E53E248960246A
:1011400024C0601824E0600C24F0701E753900750E
:101150003A018016752B00752C01800E75100075F4
:1011600011018006753F00754001E53E64F0453D84
:10117000600FAFB0753D008F3E533EF0753D00806F
:02118000E92262
:10118200E544641445437003021229E541600302F9
:101192001223E54224FE601E146029146039146093
:1011A2005314606D240570798543148544157516B2
:1011B200007517108006854316854417751800754B
:1011C20019108006854318854419E4F51DF51C7530
:1011D2001B80751A418011AC43AD44EC120D438F54
:1011E2001D8E1C8D1B8C1AE4F521F520751F807550
:1011F2001E418011AC43AD44EC120D438F218E2071
:101202008D1F8C1EE4F525F52475238075224180FF
:1012120010AC43AD44EC120D438F258E248D238CEC
:1012220022754300754414AF15C007AD17C005AB56
:1012320019C003AF1DAE1CAD1BAC1A120D7C8F5A28
:10124200AF21AE20AD1FAC1E120D7C8F5BAF25AE61
:1012520024AD23AC22120D7C8F5CD003D005D007C5
:101262001212F9E5156410451460068514338515CC
:1012720034E517641045166006851631851732E588
:101282001964104518600685182F851930E4FFFE91
:101292007D807C41AB1DAA1CA91BA81A120CD1602F
:1012A2000FAF1DAE1CAD1BAC1A120D7C8E2D8F2EF6
:1012B200E4FFFE7D807C41AB21AA20A91FA81E125B
:1012C2000CD1600FAF21AE20AD1FAC1E120D7C8E73
:1012D200298F2AE4FFFE7D807C41AB25AA24A92325
:1012E200A822120CD1600FAF25AE24AD23AC22127E
:0712F2000D7C8E278F2822DE
:10000300120F50E53A452C451145404513454C70B8
:100013000512118280EAE53A452C451145407003EB
:100023000202EA7514007515107516007517107520
:100033001800751910E4F51DF51C751B80751A4120
:10004300F521F520751F80751E41F525F5247523CF
:1000530080752241E53A45396016E4F539F53AF5FC
:100063004D754E01F549F54AF53BF53CF555F55609
:10007300E52C452B6016E4F52BF52CF54DF54EF5E7
:1000830049754A01F53BF53CF555F556E511451023
:100093006016E4F510F511F54DF54EF549F54AF501
:1000A3003B753C01F555F556E540453F6016E4F5D3
:1000B3003FF540F54DF54EF549F54AF53BF53CF571
:1000C30055755601E5416003020291E54214700340
:1000D30002028214700302026814700302024214C3
:1000E30070030202091470030201C11460030202C7
:1000F30091AE33AF34EE3395E0FDFC7BA07A867985
:10010300017800120E0FC004A905AA06AB07AE3191
:10011300AF327C277D10120DFDEE3395E0FDFCD050
:1001230000EB2FFFEA3EFEE93DFDE83CFCC004A9DD
:1001330005AA06AB07AE2FAF307C037DE8120DFD99
:10014300EE3395E0FDFCD000EB2FFFEA3EFEE93DE8
:10015300FDE83CFCC004A905AA06AB07AE2DAF2EF3
:100163007C007D64120DFDEE3395E0FDFCD000EBC9
:100173002FFFEA3EFEE93DFDE83CFCC004A905AAC9
:1001830006AB07AE29AF2A7C007D0A120DFDEE33C4
:1001930095E0FDFCD000EB2FFBEA3EFAE93DF9E8E0
:1001A3003CF8AE27EE3395E0FDFCEB2528F538EA65
:1001B3003EF537E93DF536E83CF535020291AE31BF
:1001C300AF327C037DE8120DFDAA06AB07AE33AF59
:1001D300347C277D10120DFDEF2BFBEE3AFAAE2F88
:1001E300AF307C007D64120DFDEF2BFBEE3AFAAECF
:1001F3002DAF2E7D0A120DFDEF2BFFEE3AFEE52A01
:100203002FFFE5298070AE31AF327C007D64120D83
:10021300FDAA06AB07AE33AF347C037DE8120DFDB8
:10022300EF2BFBEE3AFAAE2FAF307C007D0A120DB6
:10023300FDEF2BFFEE3AFEE52E2FFFE52D8037AEC7
:1002430031AF327C007D0A120DFDAA06AB07AE3337
:10025300AF347D64120DFDEF2BFFEE3AFEE5302F38
:10026300FFE52F8011AE33AF347C007D0A120DFD04
:10027300E5322FFFE5313EFE3395E08F388009AE3E
:1002830033EE3395E08534388E37F536F535E4F5BE
:1002930041F542F527F528F529F52AF52DF52EF533
:1002A3002FF530F531F532F533F534AF15C007AD21
:1002B30017C005AB19C003AF1DAE1CAD1BAC1A12A2
:1002C3000D7C8F5AAF21AE20AD1FAC1E120D7C8F5B
:1002D3005BAF25AE24AD23AC22120D7C8F5CD00323
:1002E300D005D0071212F9E51345127003020A6014
:1002F300E4F512F513755A10755B10755C107B10DD
:100303007D107F101212F9E54160030204D4E54227
:100313001470030204C51470030204AB14700302C7
:10032300048514700302044C147003020404146063
:10033300030204D4AE33AF34EE3395E0FDFC7BA06F
:100343007A8679017800120E0FC004A905AA06ABBC
:1003530007AE31AF327C277D10120DFDEE3395E0F1
:10036300FDFCD000EB2FFFEA3EFEE93DFDE83CFC3F
:10037300C004A905AA06AB07AE2FAF307C037DE806
:10038300120DFDEE3395E0FDFCD000EB2FFFEA3EAE
:10039300FEE93DFDE83CFCC004A905AA06AB07AE97
:1003A3002DAF2E7C007D64120DFDEE3395E0FDFC38
:1003B300D000EB2FFFEA3EFEE93DFDE83CFCC00424
:1003C300A905AA06AB07AE29AF2A7C007D0A120D48
:1003D300FDEE3395E0FDFCD000EB2FFBEA3EFAE99E
:1003E3003DF9E83CF8AE27EE3395E0FDFCEB25281C
:1003F300F548EA3EF547E93DF546E83CF545020494
:10040300D4AE31AF327C037DE8120DFDAA06AB07F3
:10041300AE33AF347C277D10120DFDEF2BFBEE3A8C
:10042300FAAE2FAF307C007D64120DFDEF2BFBEE97
:100433003AFAAE2DAF2E7D0A120DFDEF2BFFEE3AE9
:10044300FEE52A2FFFE5298070AE31AF327C007DB7
:1004530064120DFDAA06AB07AE33AF347C037DE80F
:10046300120DFDEF2BFBEE3AFAAE2FAF307C007D81
:100473000A120DFDEF2BFFEE3AFEE52E2FFFE52DC1
:100483008037AE31AF327C007D0A120DFDAA06AB78
:1004930007AE33AF347D64120DFDEF2BFFEE3AFE52
:1004A300E5302FFFE52F8011AE33AF347C007D0A9A
:1004B300120DFDE5322FFFE5313EFE3395E08F4807
:1004C3008009AE33EE3395E08534488E47F546F523
:1004D30045E4F541F542F527F528F529F52AF52DEB
:1004E300F52EF52FF530F531F532F533F534E54ECC
:1004F300454D601DE4F54DF54EE5382548F548E5D5
:10050300373547F547E5363546F546E5353545F59F
:1005130045E54A4549601EE4F549F54AC3E5389582
:1005230048F548E5379547F547E5369546F546E5F9
:10053300359545F545E53C453B6020E4F53BF53C09
:10054300AF48AE47AD46AC45AB38AA37A936A83558
:10055300120E0F8F488E478D468C45E556455570D4
:1005630003020618E4F555F556AC37AD38EC120D19
:1005730043C004C005C006C007AF48AE47AD46AC94
:1005830045EC120D3EA804A905AA06AB07D007D077
:1005930006D005D004120C348F0B8E0A8D098C08FB
:1005A300E4FFFE7D807C3FAB0BAA0AA909A80812D1
:1005B3000CD1500D7526017F007E407D1C7C46804A
:1005C3003EE4FFFE7D207C41AB0BAA0AA909A808E3
:1005D300120CD1500C752601E4FFFE7D7A7C448019
:1005E3001EE4FFFE7DC87C42AB0BAA0AA909A8083A
:1005F300120CD15020752602E4FFFE7DC87C42AB6D
:100603000BAA0AA909A808120B2B120D7C8F488E7E
:10061300478D468C45E47F0AFEFDFCAB48AA47A9FB
:1006230046A845C3120E6C5056AF48AE47AD46AC14
:1006330045EC335035751400751511120E5EE47BCD
:100643000AFAF9F812142E8E168F17AF48AE47AD7B
:1006530046AC45120E5EE47B0AFAF9F812142EAE8C
:1006630002AF038E188F1902073585471485481585
:10067300751600751710751800751910020735E403
:100683007F64FEFDFCAB48AA47A946A845C3120EEA
:100693006C5036E47B0AFAF9F8AF48AE47AD46AC86
:1006A3004512142E8E148F15E47B0AFAF9F8AF481D
:1006B300AE47AD46AC4512142EAE02AF038E168F75
:1006C300177518007519108069E47FE87E03FDFC37
:1006D300AB48AA47A946A845C3120E6C5062E47BF7
:1006E30064FAF9F8AF48AE47AD46AC4512142E8E06
:1006F300148F15E47B64FAF9F8AF48AE47AD46AC06
:100703004512142EAC00AD01AE02AF03E47B0AFA2E
:10071300F9F812142E8E168F17E47B0AFAF9F8AF44
:1007230048AE47AD46AC4512142EAE02AF038E1849
:100733008F19E4F51DF51C751B80751A410207E43A
:10074300E47F107E27FDFCAB48AA47A946A845C312
:10075300120E6C40030207F8E47BE87A03F9F8AF62
:1007630048AE47AD46AC4512142E8E148F15E47B6C
:10077300E87A03F9F8AF48AE47AD46AC4512142EFC
:10078300AC00AD01AE02AF03E47B64FAF9F81214D6
:100793002E8E168F17E47B64FAF9F8AF48AE47AD97
:1007A30046AC4512142EAC00AD01AE02AF03E47BA0
:1007B3000AFAF9F812142E8E188F19E47B0AFAF943
:1007C300F8AF48AE47AD46AC4512142EAC00AD01B0
:1007D300AE02AF03EC120D3E8F1D8E1C8D1B8C1AC7
:1007E300E4F521F520751F80751E41F525F5247567
:1007F3002380020A1E7FA07E867D017C00AB48AA6F
:1008030047A946A845C3120E6C40030208D7E47BF0
:10081300107A27F9F8AF48AE47AD46AC4512142E0F
:100823008E148F15E47B107A27F9F8AF48AE47ADE5
:1008330046AC4512142EAC00AD01AE02AF03E47B0F
:10084300E87A03F9F812142E8E168F17E47BE87AF0
:1008530003F9F8AF48AE47AD46AC4512142EAC00D1
:10086300AD01AE02AF03E47B64FAF9F812142E8EE5
:10087300188F19E47B64FAF9F8AF48AE47AD46AC7C
:100883004512142EAC00AD01AE02AF03E47B0AFAAD
:10089300F9F812142EEC120D3E8F1D8E1C8D1B8C3D
:1008A3001AE47B0AFAF9F8AF48AE47AD46AC4512F5
:1008B300142EAC00AD01AE02AF03EC120D3E8F213E
:1008C3008E208D1F8C1EE4F525F52475238075225B
:1008D300410209DA7F407E427D0F7C00AB48AA4784
:1008E300A946A845C3120E6C40030209DA7BA07A1D
:1008F3008679017800AF48AE47AD46AC4512142E59
:100903008E148F157BA07A8679017800AF48AE47A5
:10091300AD46AC4512142EAC00AD01AE02AF03E4FC
:100923007B107A27F9F812142E8E168F17E47B109A
:100933007A27F9F8AF48AE47AD46AC4512142EAC52
:1009430000AD01AE02AF03E47BE87A03F9F81214B9
:100953002E8E188F19E47BE87A03F9F8AF48AE4777
:10096300AD46AC4512142EAC00AD01AE02AF03E4AC
:100973007B64FAF9F812142EEC120D3E8F1D8E1CB7
:100983008D1B8C1AE47B64FAF9F8AF48AE47AD4689
:10099300AC4512142EAC00AD01AE02AF03E47B0AEA
:1009A300FAF9F812142EEC120D3E8F218E208D1FB2
:1009B3008C1EE47B0AFAF9F8AF48AE47AD46AC4566
:1009C30012142EAC00AD01AE02AF03EC120D3E8F3C
:1009D300258E248D238C227F407E427D0F7C00ABAD
:1009E30048AA47A946A845D3120E6C403175140096
:1009F300751511751600751711751800751911E421
:100A0300F51DF51C751B88751A41F521F520751F19
:100A130088751E41F525F524752388752241AF1588
:100A2300C007AD17C005AB19C003AF1DAE1CAD1B8E
:100A3300AC1A120D7C8F5AAF21AE20AD1FAC1E1223
:100A43000D7C8F5BAF25AE24AD23AC22120D7C8FC2
:100A53005CD003D005D0071212F9854890E54C45C8
:100A63004B7003020003751400751510751600759D
:100A73001710751800751910E4F51DF51C751B800A
:100A8300751A41F521F520751F80751E41F525F571
:100A930024752380752241F527F528F529F52AF5D4
:100AA3002DF52EF52FF530F531F532F533F534F517
:100AB30039F53AF52BF52CF510F511F53FF540F521
:100AC3004DF54EF549F54AF53BF53CF555F556F52B
:100AD3004BF54CF512F513F538F537F536F535F5D5
:100AE30048F547F546F545F526AF15C007AD17C0E0
:100AF30005AB19C003AF1DAE1CAD1BAC1A120D7CA8
:100B03008F5AAF21AE20AD1FAC1E120D7C8F5BAF91
:100B130025AE24AD23AC22120D7C8F5CD003D0050F
:080B2300D0071212F9020003D1
:100B2B00EC4D6011E8497017ED33EC3304600DE4C4
:100B3B00FCFFFEFD22E933E8330470F8020DE812E6
:100B4B000DB358046009E4CC2481500628500902E7
:100B5B000DF2284003020DEFC0E0EB4A7044B98060
:100B6B0006D0E0FB020DDEEF4E701CBD8008EBFFE4
:100B7B00EAFEE9FD80EBE98DF0A4FEE5F0020C1432
:100B8B00E9CDF9EAFEEBFFEF89F0A4FCE5F0CE89A5
:100B9B00F0A42EFFE435F0CD89F0A42DFEE435F062
:100BAB008067EF4E7005BD80D780C3EF8BF0A4AC90
:100BBB00F0EE8BF0A42CFCE435F0F8EF8AF0A42CCB
:100BCB00E5F038FCE433CB8DF0A42CFCE5F03BF8DE
:100BDB00EE8AF0A42CFCE5F038F8E433CF89F0A4CE
:100BEB002CFCE5F038CF3400CE89F0A42FFFE5F0D4
:100BFB003EFEE433C98DF0A42EFEE5F039CD8AF02C
:100C0B00A42FFFE5F03EFEE43DFD33D0E0FB5007A3
:100C1B000BBB000F020DF2EC2CFCEF33FFEE33FE9F
:060C2B00ED33FD020DCACD
:100C3100020DF2EC5D046005E859047003020DE851
:100C4100120DB3580460F6EC4860F2EC7004FDFE3E
:100C5100FF22C860DB2481C85009C3986002500696
:100C6100020DEF9850CAF582E9294B4A7005AB8213
:100C7100020DDE75F0007C1A7880C3EF9BEE9AEDD1
:100C810099400DC3EF9BFFEE9AFEED99FDE842F00E
:100C9100DC23ACF0D0E0FFD0E0FED0E0FDAB822061
:100CA100E7101BEB60BAEC2CFCEF33FFEE33FEEDEB
:100CB10033FD020DCAE803F830E705C0F075F00016
:100CC100EF2FFFEE33FEED33FD40B830E7C280AACF
:100CD10074F8CC6480CCC86480C8F582046043C3D6
:100CE100EB9FF5F0EA9E42F0E99D42F0E89C45F069
:100CF10060305018E5825FFFE582F42B5582FB508E
:100D0100210ABA001D09B90019088016E5825BFBAA
:100D1100E582F42F5582FF50090EBE00050DBD007E
:100D2100010CC3EB9FF5F0EA9E42F0E99D42F0E829
:0D0D31009C45F06007CC4820E701B3EC22A0
:100D3E0075F020800E75F010800575F0087D007E30
:100D4E00007F003392D530D503120E5EEC33401087
:100D5E00EF33FFEE33FEED33FDEC33FCD5F0ED2239
:0E0D6E00E5F0247EA2D513CC92E7CDCEFF2275
:100D7C00EDD2E7CD33EC3392D524814006E4FFFE6F
:100D8C00FDFC22FCE4CFCECDCC24E0501174FF80CE
:100D9C00EDC3CC13CCCD13CDCE13CECF13CF04706B
:070DAC00F030D5DE020E5EFF
:100DB300E9D2E7C933E833F892D5EDD2E7CD33EC86
:070DC30033FC5002B2D522FF
:100DCA00EC30E7100FBF000C0EBE00080DBD00048A
:100DDA000BEB6014A2D5EB13FCED92E7FD2274FF36
:100DEA00FCFDFEFF22E480F8A2D574FF13FC7D808F
:030DFA00E480EFA3
:1013AE00020003E493A3F8E493A34003F68001F252
:1013BE0008DFF48029E493A3F85407240CC8C33340
:1013CE00C4540F4420C8834004F456800146F6DF0F
:1013DE00E4800B01020408102040809014ACE47EDF
:1013EE00019360BCA3FF543F30E509541FFEE49304
:1013FE00A360010ECF54C025E060A840B8E493A3CB
:10140E00FAE493A3F8E493A3C8C582C8CAC583CAF5
:10141E00F0A3C8C582C8CAC583CADFE9DEE780BEAD
:0114D000001B
:100DFD00EF8DF0A4A8F0CF8CF0A428CE8DF0A42E0A
:020E0D00FE22C3
:100E0F00E88FF0A4CC8BF0A42CFCE98EF0A42CFC82
:100E1F008AF0EDA42CFCEA8EF0A4CDA8F08BF0A400
:100E2F002DCC3825F0FDE98FF0A42CCD35F0FCEB5F
:100E3F008EF0A4FEA9F0EB8FF0A4CFC5F02ECD3924
:0F0E4F00FEE43CFCEAA42DCE35F0FDE43CFC2291
:10142E00C2D5E830E70FB2D5E4C39BFBE49AFAE4E9
:10143E0099F9E498F8EC30E717B2D5121464120E4D
:10144E00BEE4C39BFBE49AFAE499F9E498F88003AE
:10145E00120EBE30D50DE4C39FFFE49EFEE49DFD4B
:04146E00E49CFC22DC
:0E0E5E00C3E49FFFE49EFEE49DFDE49CFC22A5
:100E6C00EB9FF5F0EA9E42F0E99D42F0EC6480C8FD
:060E7C0064809845F0229D
:100E820075F008758200EF2FFFEE33FECD33CDCC27
:100E920033CCC58233C5829BED9AEC99E5829840AA
:100EA2000CF582EE9BFEED9AFDEC99FC0FD5F0D687
:100EB200E4CEFBE4CDFAE4CCF9A88222B800C1B9B1
:100EC2000059BA002DEC8BF084CFCECDFCE5F0CBEF
:100ED200F97818EF2FFFEE33FEED33FDEC33FCEB28
:100EE20033FB10D703994004EB99FB0FD8E5E4F9E3
:100EF200FA227818EF2FFFEE33FEED33FDEC33FCD0
:100F0200C933C910D7059BE99A4007EC9BFCE99AC3
:100F1200F90FD8E0E4C9FAE4CCFB2275F010EF2F08
:100F2200FFEE33FEED33FDCC33CCC833C810D70708
:100F32009BEC9AE899400AED9BFDEC9AFCE899F843
:0E0F42000FD5F0DAE4CDFBE4CCFAE4C8F922D6
:00000001FF
