:0300000002031EDA
:0C031E00787FE4F6D8FD758120020335DD
:10028F00D3EF9400EE940040147D727C00ED1D704E
:0D029F00011CED4C70F7EF1F70E61E80E3B0
:0102AC00222F
:070003007E0A00DEFDDFF9BB
:01000A0022D3
:04031100D294D2951B
:09031500C292C297C293C2962263
:08038D00120311D293D2962253
:0A034000120311D292D29702028F2D
:0A034A00120311D296D29202028F24
:0A035400120311D293D29702028F18
:0B032A00750CFB750BFBC294C2952202
:080372007F037EC4DEFEDFFC08
:01037A002260
:0702E100D2A7120372C2A7AD
:0902E800007F227E10DEFEDFFC27
:0102F10022EA
:09035E00007F027E0FDEFEDFFCD1
:010367002273
:09036800007F237EC5DEFEDFFCF0
:010371002269
:08037B007F207E5DDEFEDFFC49
:010383002257
:080384007F057E78DEFEDFFC40
:01038C00224E
:10022B00AF8CEFFEAD8A7C00E42DFFEC3EFEE4F5D7
:10023B008CF58AAD07AC061201197B777AE0793C15
:10024B00783E12000E1201528E098F0AC3E50A94F2
:10025B0058E509941B5003300002C200AE09AF0AE7
:01026B002270
:0702F2007FD07E0712028F8E
:0A02F900D2A17F02120003C2A1226D
:1002AD00E4FD1202E10DBD0AF91202F230A0FDD2F9
:0B02BD008C20A0FDC28C12022B7E00E2
:0102C8002213
:10026C00E4FDD2A712035EC2A71203680DBD0AF209
:10027C001202F230A0FDD28C20A0FDC28C12022BF7
:02028C007E00F2
:01028E00224D
:1001E10030B20320B34012032A7F647E0012028FD3
:1001F10012026C8E0D8F0E7FE87E0312028F1202A7
:10020100ADAB07AA067FE87E0312028F7F507E0006
:10021100120340D3EB950EEA950D7F967E004003C5
:0902210002035402034A12038D8A
:01022A0022B1
:1002C900D2AF438901E4F58CF58AD2A94389207517
:0802D9008DDC758BDCD28E2256
:0E030300C2A71202E1D2A77FE87E0302028F9A
:03000B0002039558
:03039500D2003261
:0B0335001203031202C91201E180FB59
:10000E00EC4D6011E8497017ED33EC3304600DE4EC
:10001E00FCFFFEFD22E933E8330470F80201BE1244
:10002E00018958046009E4CC248150062850090245
:10003E0001C82840030201C5C0E0EB4A7044B980F4
:10004E0006D0E0FB0201B4EF4E701CBD8008EBFF42
:10005E00EAFEE9FD80EBE98DF0A4FEE5F00200F783
:10006E00E9CDF9EAFEEBFFEF89F0A4FCE5F0CE89CD
:10007E00F0A42EFFE435F0CD89F0A42DFEE435F08A
:10008E008067EF4E7005BD80D780C3EF8BF0A4ACB8
:10009E00F0EE8BF0A42CFCE435F0F8EF8AF0A42CF3
:1000AE00E5F038FCE433CB8DF0A42CFCE5F03BF806
:1000BE00EE8AF0A42CFCE5F038F8E433CF89F0A4F6
:1000CE002CFCE5F038CF3400CE89F0A42FFFE5F0FC
:1000DE003EFEE433C98DF0A42EFEE5F039CD8AF054
:1000EE00A42FFFE5F03EFEE43DFD33D0E0FB5007CC
:1000FE000BBB000F0201C8EC2CFCEF33FFEE33FEFE
:06010E00ED33FD0201A02B
:1001140075F020800E75F010800575F0087D007E66
:10012400007F003392D530D5031201D3EC33401055
:10013400EF33FFEE33FEED33FDEC33FCD5F0ED226F
:0E014400E5F0247EA2D513CC92E7CDCEFF22AB
:10015200EDD2E7CD33EC3392D524814006E4FFFEA5
:10016200FDFC22FCE4CFCECDCC24E0501174FF8004
:10017200EDC3CC13CCCD13CDCE13CECF13CF0470A1
:07018200F030D5DE0201D3CD
:10018900E9D2E7C933E833F892D5EDD2E7CD33ECBC
:0701990033FC5002B2D52235
:1001A000EC30E7100FBF000C0EBE00080DBD0004C0
:1001B0000BEB6014A2D5EB13FCED92E7FD2274FF6C
:1001C000FCFDFEFF22E480F8A2D574FF13FC7D80C5
:0301D000E480EFD9
:0E01D300C3E49FFFE49EFEE49DFDE49CFC223D
:00000001FF
