:0300000002001EDD
:0C001E00787FE4F6D8FD758120020065B3
:10019F000108B40110B4020A0000040C00000000B2
:0201AF00C1008D
:10018100D3EF9400EE940040147D727C00ED1D705D
:0D019100011CED4C70F7EF1F70E61E80E3BF
:01019E00223E
:070003007E0A00DEFDDFF9BB
:01000A0022D3
:0501B2007E0112018135
:0901B700C292D293D296C29722A3
:09000E00C292C293D296C297225D
:0901C000C296C297C292D29322AA
:0901C900D292C293C296D2972291
:0901D200C296C297C292C29322A8
:03001B00020137A8
:10013700C0E0C0D00509E509B4FF07C295C29475B0
:100147000900E508B50902D294E510B50902D29570
:05015700D0D0D0E03221
:03000B00020017D9
:03001700D20032E2
:10015C0030B30630B2030201B730B30620B203123B
:10016C00000E20B30630B2031201C020B30620B239
:05017C00031201C9227D
:1000AA0030B40320B5501201C97F967E0012018137
:1000BA0012000E7FA41201B27F787E001201811213
:1000CA0001D27F327E001201811201C07F721201B9
:1000DA00B27FC87E001201811201D27F507E0012C7
:1000EA00018112000E7FC87E001201811201B77FC2
:0700FA00967E001201812235
:100101007FE87E03120181438920438901758DDCDB
:10011100758BDCE4F58CF58AD2ABD2A9D28ED2AF45
:100121001200AAE4FFFE12015C0FBF00010EBE0720
:06013100F5BF08F280EAB0
:10002A00020101E493A3F8E493A34003F68001F2EA
:10003A0008DFF48029E493A3F85407240CC8C333D7
:10004A00C4540F4420C8834004F456800146F6DFA6
:10005A00E4800B010204081020408090019FE47E96
:10006A00019360BCA3FF543F30E509541FFEE4939B
:10007A00A360010ECF54C025E060A840B8E493A362
:10008A00FAE493A3F8E493A3C8C582C8CAC583CA8D
:10009A00F0A3C8C582C8CAC583CADFE9DEE780BE45
:0101B100004D
:00000001FF
