:0300000002006E8D
:0C006E00787FE4F6D8FD758107020003DE
:10002900D3EF9400EE940040147DA27C03ED1D7083
:0D003900011CED4C70F7EF1F70E61E80E318
:010046002297
:05007A00D293D2962292
:05007F00D292D296228E
:0D006100D294D295C292C297C293C2962249
:0D00470012006112007A7FC87E00120029AD
:0D005400C294C295C292C293C297C2962276
:100003001200477F967E0012002912006112007FC2
:100013007F2812004F7F647E001200291200477F61
:06002300107E27020029F7
:00000001FF
