:10019D0000C000F900A400B000990092008200F8A0
:1001AD00008000900088008300C600A10086008EAC
:1000CE00E4FDE4FCE9C313F9E4F58CF58AD28C3037
:1000DE00B2FDC28CAF8CEFFEAB8A7A00E42BF50B2F
:1000EE00EA3EF50AE4F58CF58AD28C20B2FDC28C7C
:1000FE00AF8CEFFEAB8A7A00E42BF509EA3EF508E9
:10010E00C3E50B9468E50A9401400BD3E50B94A864
:10011E00E50A94024002C322D3E5099490E50894BF
:10012E0001400DE50994A8E5089402500353017FA0
:10013E00D3E5099478E5089405400DE509943AE570
:10014E0008940750034301800CEC6408600302001E
:10015E00D2740C2DF8A6010DED640460030200D0DC
:08016E00E50FF4F50E6001D36A
:010176002266
:0E01BD00D2AFD2A9D288758901C28CD2A822F5
:10017700E50E24FE600B14600F24027012C2A080EB
:1001870010C2A1D2A0D2A222D2A0D2A1C2A222D2B0
:06019700A0D2A2D2A122B9
:0501D7001201BD80FED5
:03000300020006F2
:10000600C0E0C083C082C0D075D000C000C001C0AF
:1000160002C003C004C005C006C007C2A8758C0094
:10002600758A00D28C30B2FDC28CAF8CEFFEAD8AE1
:100036007C00E42DF50BEC3EF50AD3E50B9434E594
:100046000A94214010E50B941CE50A942550067E7F
:10005600007F0180047E007F00EF64014E6004D2C1
:10006600A8804C758C00758A00D28C20B2FDC28C9B
:10007600AF8CEFFEAD8A7C00E42DF509EC3EF50869
:10008600D3E50994A0E508940F4022E5099488E594
:1000960008941350181200CEE50E25E0249DF58233
:1000A600E43401F583740193F590120177D2A8D058
:1000B60007D006D005D004D003D002D001D000D09E
:0800C600D0D082D083D0E032DB
:030000000201CB2F
:0C01CB00787FE4F6D8FD75810F0201D7A3
:00000001FF
