:0300000002017B7F
:0C017B00787FE4F6D8FD7581200200BBFF
:10015B0000C000F900A400B000990092008200F8E2
:10016B00008000900088008300C600A10086008EEE
:07018700AE071FEE70FA2223
:10000300E4F50AF50B75900FE590640F605F7FE8E8
:10001300120187E590640F605475900FAF90EF2441
:10002300F9601724FC600B24FE7015E4F50CF50D44
:10003300800E750C00750D018006750C00750D02A0
:100043007F0A1201877590F0AF90EF24906013241C
:10005300C0600B24E0600324F0227403800674065E
:0D00630080027409250DF50DE4350CF50C37
:01007000226D
:08007100D200750AFD750BD0E9
:10007900E50AF58C850B8AC28DD28C200005208D6E
:100089002A80FBC2B0208D23208D20D2B0208D1B69
:10009900208D18208D15208D12208D0F208D0C207C
:1000A9008D09208D06208D03308DD8C28CC28DD24A
:0200B900B02273
:10013400E4FE120071EF30E00AC200750AF9750B93
:10014400708008C200750AFD750BD0120079EFC3E8
:0601540013FF0EBE08DCE3
:01015A002282
:1000F900AD07D200750ADC750BD8120079C20075FC
:100109000AEE750B6C1200797F801201347F7F1221
:100119000134AF05120134EDF4FF120134120071FC
:0B012900C200750A63750BC00200796C
:1000BB00758901120003D2B0E509650D7004E508DE
:1000CB00650C60EF850C08850D09E50D25E0FFE556
:1000DB000C33FE745B2FF58274013EF58374019330
:0E00EB00F5A07F14120187AF0D1200F980C539
:00000001FF
