:03000000020733C1
:0C073300787FE4F6D8FD75813B0205C418
:1006CD002D20002B200000000000202074656D708F
:0A06DD00657261747572653A2000C1
:02075B0000227A
:10069500D3EF9400EE940040147D647C00ED1D7052
:0D06A500011CED4C70F7EF1F70E61E80E3A6
:0106B2002225
:1006FD00C2B58F80D2B412075BC2B47F017E0002F7
:02070D0006954F
:10070F00D2B58F80D2B412075BC2B47F017E0002D4
:02071F0006953D
:1006B300C2B6C2A7C2A67F381206FD7F0C1206FD82
:0A06C3007F061206FD7F010206FD0E
:080604008B378A3889398D3AE1
:10060C00E4F53BE53BC3953A5017AB37AA38A9390B
:10061C00853B827583001203B6FF12070F053B80E2
:01062C00E2EB
:01062D0022AA
:10067600C2A27F647E00EF1F70011EEF4E70F7D29C
:0E068600A27E007F04EF1F70011EEF4E70F782
:010694002243
:1006E70020A2FDA2A2B340FB7F047E00EF1F700192
:0506F7001EEF4E70F73C
:0106FC0022DB
:10062E00C2A20FBF0000D2A20FBF00000FBF00007A
:10063E00A2A292007E007F08EF1F70011EEF4E7087
:03064E00F7A20010
:010651002286
:10065200E4FDFBFA12062EE433FFC4333333548035
:10066200FEEDC3134EFD0BBB00010AEB64084A709A
:03067200E3AF05EE
:010675002262
:0F056D001206761206E77F017E001206957FCCFC
:10057C00E4FEEF139200EFC313FF30001BC2A20B7B
:10058C00BB00000BBB0000D2A27A007B08EB1B70F7
:10059C00011AEB4A70F7801BC2A27A007B08EB1B96
:1005AC0070011AEB4A70F7D2A20BBB00010A0BBB0D
:0705BC0000010A0EBE08BB9E
:0105C3002215
:08074B0012056D7F4402057CDC
:0807530012056D7FBE02057C5A
:10050C00120753120652A907120652EFFEE9FF8E8C
:10051C00318F32AC31AD32EC120206E4FBFA798049
:10052C00783D1200FB8F368E358D348C33E4FFFE14
:10053C007D207C41AB36AA35A934A8331200FBD3FD
:10054C00E5329400E53164809480E4FBFAF94004D0
:10055C00783F800278BF12000A12023F8E318F3230
:01056C00226C
:10072100C2A07F647E00120695D2A07F647E000283
:0207310006952B
:040446008E318F3232
:10044A0078337C007D007BFF7A0679D37E007F04B7
:10045A00120390AF32AE3112073FAB07AA067C03F4
:10046A007DE81203E38F337C037DE8AF03AE02120B
:10047A0003E37E007F64CFCDCFCECCCE1203E38FD1
:10048A00347C007D64AF03AE021203E37E007F0A70
:10049A00CFCDCFCECCCE1203E38F35AE02AF037CE5
:1004AA00007D0A1203E38D367FC31206FDC3E531D0
:1004BA0064809480500D7BFF7A0679CD7D02120606
:1004CA000480187BFF7A0679D07D02120604D3E5F0
:1004DA003294DEE531648094834003120721E533C8
:1004EA0060062430FF12070F7B0174332BF8E624D1
:1004FA0030FF12070FBB02057F2E12070F0BBB043A
:01050A00E907
:01050B0022CD
:1005C40078217C007D007BFF7A0679D77E007F103E
:1005D40012039012074B1206B37F801206FD7B00B4
:1005E4007A0079217D101206047FE87E03120695B5
:1005F4007FC01206FD12050C12044612074B80E957
:100003000202ABE86480F8E933E83360110460F07E
:10001300ED33EC337009E8FCE9FDEAFEEBFF220463
:1000230060DED3EB9FEA9EE99DE8C2E78CF0C2F75E
:1000330095F0400CE8CCF8E9CDF9EACEFAEBCFFB2A
:1000430012027685D0F05804700320D5B3E804700B
:10005300075002B2D50202B592D5EC0460F7E4CCA6
:10006300C0E0C398F8603B94186008400DD0E0FBF3
:1000730002028DE4FBFAC9FC8028E830E406E4C9F7
:10008300FBE4CAFCE830E305E4C9CACBFCE8540747
:100093006010F8C3E913F9EA13FAEB13FBEC13FC52
:1000A300D8F130F52FC3E49CFCEF9BFFEE9AFEEDF5
:1000B30099FDD0E0FBEF4E4D4C701222DB030202A0
:1000C300B2EC2CFCEF33FFEE33FEED33FDED30E706
:1000D300EB02028DEF2BFFEE3AFEED39FDD0E0FB94
:1000E30050130BBB00030202B5ED13FDEE13FEEF3D
:0800F30013FFEC13FC02028D67
:1000FB00EC4D6011E8497017ED33EC3304600DE4FF
:10010B00FCFFFEFD22E933E8330470F80202AB1268
:10011B00027658046009E4CC248150062850090269
:10012B0002B52840030202B2C0E0EB4A7044B9802A
:10013B0006D0E0FB0202A1EF4E701CBD8008EBFF66
:10014B00EAFEE9FD80EBE98DF0A4FEE5F00201E4A7
:10015B00E9CDF9EAFEEBFFEF89F0A4FCE5F0CE89DF
:10016B00F0A42EFFE435F0CD89F0A42DFEE435F09C
:10017B008067EF4E7005BD80D780C3EF8BF0A4ACCA
:10018B00F0EE8BF0A42CFCE435F0F8EF8AF0A42C05
:10019B00E5F038FCE433CB8DF0A42CFCE5F03BF818
:1001AB00EE8AF0A42CFCE5F038F8E433CF89F0A408
:1001BB002CFCE5F038CF3400CE89F0A42FFFE5F00E
:1001CB003EFEE433C98DF0A42EFEE5F039CD8AF066
:1001DB00A42FFFE5F03EFEE43DFD33D0E0FB5007DE
:1001EB000BBB000F0202B5EC2CFCEF33FFEE33FE22
:0601FB00ED33FD02028D50
:1002010075F020800E75F010800575F0087D007E78
:10021100007F003392D530D503120438EC334010FF
:10022100EF33FFEE33FEED33FDEC33FCD5F0ED2281
:0E023100E5F0247EA2D513CC92E7CDCEFF22BD
:10023F00EDD2E7CD33EC3392D524814006E4FFFEB7
:10024F00FDFC22FCE4CFCECDCC24E0501174FF8016
:10025F00EDC3CC13CCCD13CDCE13CECF13CF0470B3
:07026F00F030D5DE02043877
:10027600E9D2E7C933E833F892D5EDD2E7CD33ECCE
:0702860033FC5002B2D52247
:10028D00EC30E7100FBF000C0EBE00080DBD0004D2
:10029D000BEB6014A2D5EB13FCED92E7FD2274FF7E
:1002AD00FCFDFEFF22E480F8A2D574FF13FC7D80D7
:0302BD00E480EFEB
:1002C000E709F608DFFA8046E709F208DFFA803E20
:1002D00088828C83E709F0A3DFFA8032E309F6080D
:1002E000DFFA8078E309F208DFFA807088828C8375
:1002F000E309F0A3DFFA806489828A83E0A3F60829
:10030000DFFA805889828A83E0A3F208DFFA804C02
:1003100080D280FA80C680D4806980F280338010D9
:1003200080A680EA809A80A880DA80E280CA803342
:1003300089828A83ECFAE493A3C8C582C8CCC583BA
:10034000CCF0A3C8C582C8CCC583CCDFE9DEE7808A
:100350000D89828A83E493A3F608DFF9ECFAA9F009
:10036000EDFB2289828A83ECFAE0A3C8C582C8CC5F
:10037000C583CCF0A3C8C582C8CCC583CCDFEADE78
:10038000E880DB89828A83E493A3F208DFF980CCDA
:1003900088F0EF60010E4E60C388F0ED2402B404D3
:1003A0000050B9F582EB2402B4040050AF2323457A
:0603B0008223900310738C
:1003B600BB010CE58229F582E5833AF583E02250FC
:1003C60006E92582F8E622BBFE06E92582F8E22246
:0D03D600E58229F582E5833AF583E4932260
:1003E300BC000BBE0029EF8DF084FFADF022E4CCFE
:1003F300F875F008EF2FFFEE33FEEC33FCEE9DECC7
:10040300984005FCEE9DFE0FD5F0E9E4CEFD22ED0C
:10041300F8F5F0EE8420D21CFEADF075F008EF2F56
:10042300FFED33FD4007985006D5F0F222C398FD47
:050433000FD5F0EA22E4
:0E043800C3E49FFFE49EFEE49DFDE49CFC22D5
:0C073F00EE30E707C3E49FFFE49EFE22BB
:00000001FF
