:0300000002008477
:0C008400787FE4F6D8FD758109020003C6
:10005300D3EF9400EE940040147D787C00ED1D7086
:0D006300011CED4C70F7EF1F70E61E80E3EE
:01007000226D
:09009000C292C293C297C29622EB
:10007100758902758CD2758AD2D28CD2A9D2AF750C
:0300810090FF22CB
:0500030012007180FEF7
:03000B0002000EE2
:10000E00C0E0C0D075D000C006C0070509AF097E9C
:10001E0000BE010ABF9007C294C295750900E5099A
:10002E00B42308C294D295C297D296E509B4C80CEF
:10003E00D294C292D293D295C297D296D007D006BE
:05004E00D0D0D0E0322B
:00000001FF
